{
  "contractName": "ERC20",
  "abi": [
    {
      "constant": true,
      "inputs": [],
      "name": "name",
      "outputs": [
        {
          "name": "",
          "type": "string"
        }
      ],
      "payable": false,
      "stateMutability": "view",
      "type": "function"
    },
    {
      "constant": true,
      "inputs": [],
      "name": "decimals",
      "outputs": [
        {
          "name": "",
          "type": "uint8"
        }
      ],
      "payable": false,
      "stateMutability": "view",
      "type": "function"
    },
    {
      "constant": true,
      "inputs": [],
      "name": "_totalSupply",
      "outputs": [
        {
          "name": "",
          "type": "uint256"
        }
      ],
      "payable": false,
      "stateMutability": "view",
      "type": "function"
    },
    {
      "constant": true,
      "inputs": [],
      "name": "owner",
      "outputs": [
        {
          "name": "",
          "type": "address"
        }
      ],
      "payable": false,
      "stateMutability": "view",
      "type": "function"
    },
    {
      "constant": true,
      "inputs": [],
      "name": "symbol",
      "outputs": [
        {
          "name": "",
          "type": "string"
        }
      ],
      "payable": false,
      "stateMutability": "view",
      "type": "function"
    },
    {
      "inputs": [],
      "payable": false,
      "stateMutability": "nonpayable",
      "type": "constructor"
    },
    {
      "anonymous": false,
      "inputs": [
        {
          "indexed": true,
          "name": "from",
          "type": "address"
        },
        {
          "indexed": true,
          "name": "to",
          "type": "address"
        },
        {
          "indexed": false,
          "name": "value",
          "type": "uint256"
        }
      ],
      "name": "Transfer",
      "type": "event"
    },
    {
      "anonymous": false,
      "inputs": [
        {
          "indexed": true,
          "name": "owner",
          "type": "address"
        },
        {
          "indexed": true,
          "name": "spender",
          "type": "address"
        },
        {
          "indexed": false,
          "name": "value",
          "type": "uint256"
        }
      ],
      "name": "Approval",
      "type": "event"
    },
    {
      "constant": true,
      "inputs": [],
      "name": "totalSupply",
      "outputs": [
        {
          "name": "",
          "type": "uint256"
        }
      ],
      "payable": false,
      "stateMutability": "view",
      "type": "function"
    },
    {
      "constant": true,
      "inputs": [
        {
          "name": "owner",
          "type": "address"
        }
      ],
      "name": "balanceOf",
      "outputs": [
        {
          "name": "",
          "type": "uint256"
        }
      ],
      "payable": false,
      "stateMutability": "view",
      "type": "function"
    },
    {
      "constant": true,
      "inputs": [
        {
          "name": "owner",
          "type": "address"
        },
        {
          "name": "spender",
          "type": "address"
        }
      ],
      "name": "allowance",
      "outputs": [
        {
          "name": "",
          "type": "uint256"
        }
      ],
      "payable": false,
      "stateMutability": "view",
      "type": "function"
    },
    {
      "constant": false,
      "inputs": [
        {
          "name": "to",
          "type": "address"
        },
        {
          "name": "value",
          "type": "uint256"
        }
      ],
      "name": "transfer",
      "outputs": [
        {
          "name": "",
          "type": "bool"
        }
      ],
      "payable": false,
      "stateMutability": "nonpayable",
      "type": "function"
    },
    {
      "constant": false,
      "inputs": [
        {
          "name": "spender",
          "type": "address"
        },
        {
          "name": "value",
          "type": "uint256"
        }
      ],
      "name": "approve",
      "outputs": [
        {
          "name": "",
          "type": "bool"
        }
      ],
      "payable": false,
      "stateMutability": "nonpayable",
      "type": "function"
    },
    {
      "constant": false,
      "inputs": [
        {
          "name": "from",
          "type": "address"
        },
        {
          "name": "to",
          "type": "address"
        },
        {
          "name": "value",
          "type": "uint256"
        }
      ],
      "name": "transferFrom",
      "outputs": [
        {
          "name": "",
          "type": "bool"
        }
      ],
      "payable": false,
      "stateMutability": "nonpayable",
      "type": "function"
    },
    {
      "constant": false,
      "inputs": [
        {
          "name": "spender",
          "type": "address"
        },
        {
          "name": "addedValue",
          "type": "uint256"
        }
      ],
      "name": "increaseAllowance",
      "outputs": [
        {
          "name": "",
          "type": "bool"
        }
      ],
      "payable": false,
      "stateMutability": "nonpayable",
      "type": "function"
    },
    {
      "constant": false,
      "inputs": [
        {
          "name": "spender",
          "type": "address"
        },
        {
          "name": "subtractedValue",
          "type": "uint256"
        }
      ],
      "name": "decreaseAllowance",
      "outputs": [
        {
          "name": "",
          "type": "bool"
        }
      ],
      "payable": false,
      "stateMutability": "nonpayable",
      "type": "function"
    }
  ],
  "bytecode": "0x608060405234801561001057600080fd5b506040805180820190915260028082527f4843000000000000000000000000000000000000000000000000000000000000602090920191825261005591600591610114565b5060408051808201909152600a8082527f4865616c7468636f696e00000000000000000000000000000000000000000000602090920191825261009a91600491610114565b50620f4240600281905560038054600160a060020a0319163317808255600160a060020a03908116600090815260208181526040808320869055935484519586529351939092169390927fddf252ad1be2c89b69c2b068fc378daa952ba7f163c4a11628f55a4df523b3ef929181900390910190a36101af565b828054600181600116156101000203166002900490600052602060002090601f016020900481019282601f1061015557805160ff1916838001178555610182565b82800160010185558215610182579182015b82811115610182578251825591602001919060010190610167565b5061018e929150610192565b5090565b6101ac91905b8082111561018e5760008155600101610198565b90565b6107fb806101be6000396000f3006080604052600436106100c45763ffffffff7c010000000000000000000000000000000000000000000000000000000060003504166306fdde0381146100c9578063095ea7b31461015357806318160ddd1461018b57806323b872dd146101b2578063313ce567146101dc57806339509351146102075780633eaaf86b1461022b57806370a08231146102405780638da5cb5b1461026157806395d89b4114610292578063a457c2d7146102a7578063a9059cbb146102cb578063dd62ed3e146102ef575b600080fd5b3480156100d557600080fd5b506100de610316565b6040805160208082528351818301528351919283929083019185019080838360005b83811015610118578181015183820152602001610100565b50505050905090810190601f1680156101455780820380516001836020036101000a031916815260200191505b509250505060405180910390f35b34801561015f57600080fd5b50610177600160a060020a03600435166024356103a4565b604080519115158252519081900360200190f35b34801561019757600080fd5b506101a0610422565b60408051918252519081900360200190f35b3480156101be57600080fd5b50610177600160a060020a0360043581169060243516604435610428565b3480156101e857600080fd5b506101f16104c5565b6040805160ff9092168252519081900360200190f35b34801561021357600080fd5b50610177600160a060020a03600435166024356104e6565b34801561023757600080fd5b506101a0610596565b34801561024c57600080fd5b506101a0600160a060020a036004351661059c565b34801561026d57600080fd5b506102766105b7565b60408051600160a060020a039092168252519081900360200190f35b34801561029e57600080fd5b506100de6105c6565b3480156102b357600080fd5b50610177600160a060020a0360043516602435610621565b3480156102d757600080fd5b50610177600160a060020a036004351660243561066c565b3480156102fb57600080fd5b506101a0600160a060020a0360043581169060243516610682565b6004805460408051602060026001851615610100026000190190941693909304601f8101849004840282018401909252818152929183018282801561039c5780601f106103715761010080835404028352916020019161039c565b820191906000526020600020905b81548152906001019060200180831161037f57829003601f168201915b505050505081565b6000600160a060020a03831615156103bb57600080fd5b336000818152600160209081526040808320600160a060020a03881680855290835292819020869055805186815290519293927f8c5be1e5ebec7d5bd14f71427d1e84f3dd0314c0f7b2291e5b200ac8c7c3b925929181900390910190a350600192915050565b60025490565b600160a060020a038316600090815260016020908152604080832033845290915281205482111561045857600080fd5b600160a060020a038416600090815260016020908152604080832033845290915290205461048c908363ffffffff6106ad16565b600160a060020a03851660009081526001602090815260408083203384529091529020556104bb8484846106c4565b5060019392505050565b60035474010000000000000000000000000000000000000000900460ff1681565b6000600160a060020a03831615156104fd57600080fd5b336000908152600160209081526040808320600160a060020a0387168452909152902054610531908363ffffffff6107b616565b336000818152600160209081526040808320600160a060020a0389168085529083529281902085905580519485525191937f8c5be1e5ebec7d5bd14f71427d1e84f3dd0314c0f7b2291e5b200ac8c7c3b925929081900390910190a350600192915050565b60025481565b600160a060020a031660009081526020819052604090205490565b600354600160a060020a031681565b6005805460408051602060026001851615610100026000190190941693909304601f8101849004840282018401909252818152929183018282801561039c5780601f106103715761010080835404028352916020019161039c565b6000600160a060020a038316151561063857600080fd5b336000908152600160209081526040808320600160a060020a0387168452909152902054610531908363ffffffff6106ad16565b60006106793384846106c4565b50600192915050565b600160a060020a03918216600090815260016020908152604080832093909416825291909152205490565b600080838311156106bd57600080fd5b5050900390565b600160a060020a0383166000908152602081905260409020548111156106e957600080fd5b600160a060020a03821615156106fe57600080fd5b600160a060020a038316600090815260208190526040902054610727908263ffffffff6106ad16565b600160a060020a03808516600090815260208190526040808220939093559084168152205461075c908263ffffffff6107b616565b600160a060020a038084166000818152602081815260409182902094909455805185815290519193928716927fddf252ad1be2c89b69c2b068fc378daa952ba7f163c4a11628f55a4df523b3ef92918290030190a3505050565b6000828201838110156107c857600080fd5b93925050505600a165627a7a723058200dc725cf75b37de05aeadc800e7709ce7d471dcbbcf4a4f6235a7e7fc3104bff0029",
  "source": "pragma solidity ^0.4.24;\n\nimport \"./IERC20.sol\";\nimport \"./SafeMath.sol\";\n\n/**\n * @title Standard ERC20 token\n *\n * @dev Implementation of the basic standard token.\n * https://github.com/ethereum/EIPs/blob/master/EIPS/eip-20.md\n * Originally based on code by FirstBlood: https://github.com/Firstbloodio/token/blob/master/smart_contract/FirstBloodToken.sol\n */\ncontract ERC20 is IERC20 {\n  using SafeMath for uint256;\n\n  mapping (address => uint256) private _balances;\n\n  mapping (address => mapping (address => uint256)) private _allowed;\n\n  uint256 public _totalSupply;  \n\n  address public owner;\n\n  uint8 public decimals;  // 18 is the most common number of decimal places\n  string public name;\n  string public symbol;\n\n  constructor() public\n  {\n    symbol = \"HC\";\n    name = \"Healthcoin\";\n    _totalSupply = 1000000;    \n    owner = msg.sender;\n    _balances[owner] = _totalSupply;\n    emit Transfer(address(0), owner, _totalSupply);\n  }\n\n  /**\n  * @dev Total number of tokens in existence\n  */\n  function totalSupply() public view returns (uint256) {\n    return _totalSupply;\n  }\n\n  /**\n  * @dev Gets the balance of the specified address.\n  * @param owner The address to query the balance of.\n  * @return An uint256 representing the amount owned by the passed address.\n  */\n  function balanceOf(address owner) public view returns (uint256) {\n    return _balances[owner];\n  }\n\n  /**\n   * @dev Function to check the amount of tokens that an owner allowed to a spender.\n   * @param owner address The address which owns the funds.\n   * @param spender address The address which will spend the funds.\n   * @return A uint256 specifying the amount of tokens still available for the spender.\n   */\n  function allowance(\n    address owner,\n    address spender\n   )\n    public\n    view\n    returns (uint256)\n  {\n    return _allowed[owner][spender];\n  }\n\n  /**\n  * @dev Transfer token for a specified address\n  * @param to The address to transfer to.\n  * @param value The amount to be transferred.\n  */\n  function transfer(address to, uint256 value) public returns (bool) {\n    _transfer(msg.sender, to, value);\n    return true;\n  }\n\n  /**\n   * @dev Approve the passed address to spend the specified amount of tokens on behalf of msg.sender.\n   * Beware that changing an allowance with this method brings the risk that someone may use both the old\n   * and the new allowance by unfortunate transaction ordering. One possible solution to mitigate this\n   * race condition is to first reduce the spender's allowance to 0 and set the desired value afterwards:\n   * https://github.com/ethereum/EIPs/issues/20#issuecomment-263524729\n   * @param spender The address which will spend the funds.\n   * @param value The amount of tokens to be spent.\n   */\n  function approve(address spender, uint256 value) public returns (bool) {\n    require(spender != address(0));\n\n    _allowed[msg.sender][spender] = value;\n    emit Approval(msg.sender, spender, value);\n    return true;\n  }\n\n  /**\n   * @dev Transfer tokens from one address to another\n   * @param from address The address which you want to send tokens from\n   * @param to address The address which you want to transfer to\n   * @param value uint256 the amount of tokens to be transferred\n   */\n  function transferFrom(\n    address from,\n    address to,\n    uint256 value\n  )\n    public\n    returns (bool)\n  {\n    require(value <= _allowed[from][msg.sender]);\n\n    _allowed[from][msg.sender] = _allowed[from][msg.sender].sub(value);\n    _transfer(from, to, value);\n    return true;\n  }\n\n  /**\n   * @dev Increase the amount of tokens that an owner allowed to a spender.\n   * approve should be called when allowed_[_spender] == 0. To increment\n   * allowed value is better to use this function to avoid 2 calls (and wait until\n   * the first transaction is mined)\n   * From MonolithDAO Token.sol\n   * @param spender The address which will spend the funds.\n   * @param addedValue The amount of tokens to increase the allowance by.\n   */\n  function increaseAllowance(\n    address spender,\n    uint256 addedValue\n  )\n    public\n    returns (bool)\n  {\n    require(spender != address(0));\n\n    _allowed[msg.sender][spender] = (\n      _allowed[msg.sender][spender].add(addedValue));\n    emit Approval(msg.sender, spender, _allowed[msg.sender][spender]);\n    return true;\n  }\n\n  /**\n   * @dev Decrease the amount of tokens that an owner allowed to a spender.\n   * approve should be called when allowed_[_spender] == 0. To decrement\n   * allowed value is better to use this function to avoid 2 calls (and wait until\n   * the first transaction is mined)\n   * From MonolithDAO Token.sol\n   * @param spender The address which will spend the funds.\n   * @param subtractedValue The amount of tokens to decrease the allowance by.\n   */\n  function decreaseAllowance(\n    address spender,\n    uint256 subtractedValue\n  )\n    public\n    returns (bool)\n  {\n    require(spender != address(0));\n\n    _allowed[msg.sender][spender] = (\n      _allowed[msg.sender][spender].sub(subtractedValue));\n    emit Approval(msg.sender, spender, _allowed[msg.sender][spender]);\n    return true;\n  }\n\n  /**\n  * @dev Transfer token for a specified addresses\n  * @param from The address to transfer from.\n  * @param to The address to transfer to.\n  * @param value The amount to be transferred.\n  */\n  function _transfer(address from, address to, uint256 value) internal {\n    require(value <= _balances[from]);\n    require(to != address(0));\n\n    _balances[from] = _balances[from].sub(value);\n    _balances[to] = _balances[to].add(value);\n    emit Transfer(from, to, value);\n  }\n\n  /**\n   * @dev Internal function that mints an amount of the token and assigns it to\n   * an account. This encapsulates the modification of balances such that the\n   * proper events are emitted.\n   * @param account The account that will receive the created tokens.\n   * @param value The amount that will be created.\n   */\n  function _mint(address account, uint256 value) internal {\n    require(account != 0);\n    _totalSupply = _totalSupply.add(value);\n    _balances[account] = _balances[account].add(value);\n    emit Transfer(address(0), account, value);\n  }\n\n  /**\n   * @dev Internal function that burns an amount of the token of a given\n   * account.\n   * @param account The account whose tokens will be burnt.\n   * @param value The amount that will be burnt.\n   */\n  function _burn(address account, uint256 value) internal {\n    require(account != 0);\n    require(value <= _balances[account]);\n\n    _totalSupply = _totalSupply.sub(value);\n    _balances[account] = _balances[account].sub(value);\n    emit Transfer(account, address(0), value);\n  }\n\n  /**\n   * @dev Internal function that burns an amount of the token of a given\n   * account, deducting from the sender's allowance for said account. Uses the\n   * internal burn function.\n   * @param account The account whose tokens will be burnt.\n   * @param value The amount that will be burnt.\n   */\n  function _burnFrom(address account, uint256 value) internal {\n    require(value <= _allowed[account][msg.sender]);\n\n    // Should https://github.com/OpenZeppelin/zeppelin-solidity/issues/707 be accepted,\n    // this function needs to emit an event with the updated approval.\n    _allowed[account][msg.sender] = _allowed[account][msg.sender].sub(\n      value);\n    _burn(account, value);\n  }\n}",
  "sourcePath": "/home/mgsgde/Desktop/us/appliance/server.nodejs/contracts.truffle/contracts/ERC20.sol",
  "compiler": {
    "name": "solc",
    "version": "0.4.24+commit.e67f0147.Emscripten.clang"
  },
  "schemaVersion": "2.0.1",
  "updatedAt": "2018-12-14T16:50:18.495Z"
}